{
  "contractName": "MedicalReport",
  "abi": [
    {
      "inputs": [],
      "stateMutability": "nonpayable",
      "type": "constructor"
    },
    {
      "inputs": [],
      "name": "patientCounter",
      "outputs": [
        {
          "internalType": "uint256",
          "name": "",
          "type": "uint256"
        }
      ],
      "stateMutability": "view",
      "type": "function",
      "constant": true
    },
    {
      "inputs": [
        {
          "internalType": "uint256",
          "name": "",
          "type": "uint256"
        }
      ],
      "name": "patients",
      "outputs": [
        {
          "internalType": "uint256",
          "name": "id",
          "type": "uint256"
        },
        {
          "internalType": "string",
          "name": "nif",
          "type": "string"
        },
        {
          "internalType": "string",
          "name": "fullname",
          "type": "string"
        },
        {
          "internalType": "string",
          "name": "patientAddress",
          "type": "string"
        },
        {
          "internalType": "uint256",
          "name": "phone",
          "type": "uint256"
        },
        {
          "internalType": "string",
          "name": "email",
          "type": "string"
        },
        {
          "internalType": "uint256",
          "name": "age",
          "type": "uint256"
        },
        {
          "internalType": "string",
          "name": "genre",
          "type": "string"
        },
        {
          "internalType": "string",
          "name": "bloodGroup",
          "type": "string"
        },
        {
          "internalType": "string",
          "name": "alergias",
          "type": "string"
        },
        {
          "internalType": "address",
          "name": "registeredBy",
          "type": "address"
        },
        {
          "internalType": "uint256",
          "name": "registeredAt",
          "type": "uint256"
        }
      ],
      "stateMutability": "view",
      "type": "function",
      "constant": true
    },
    {
      "inputs": [
        {
          "internalType": "string",
          "name": "_nif",
          "type": "string"
        },
        {
          "internalType": "string",
          "name": "_fullname",
          "type": "string"
        },
        {
          "internalType": "string",
          "name": "_patientAddress",
          "type": "string"
        },
        {
          "internalType": "uint256",
          "name": "_phone",
          "type": "uint256"
        },
        {
          "internalType": "string",
          "name": "_email",
          "type": "string"
        },
        {
          "internalType": "uint256",
          "name": "_age",
          "type": "uint256"
        },
        {
          "internalType": "string",
          "name": "_genre",
          "type": "string"
        },
        {
          "internalType": "string",
          "name": "_bloodGroup",
          "type": "string"
        },
        {
          "internalType": "string",
          "name": "_alergias",
          "type": "string"
        }
      ],
      "name": "registerPatient",
      "outputs": [],
      "stateMutability": "nonpayable",
      "type": "function"
    },
    {
      "inputs": [
        {
          "internalType": "uint256",
          "name": "_id",
          "type": "uint256"
        }
      ],
      "name": "deletePatient",
      "outputs": [],
      "stateMutability": "nonpayable",
      "type": "function"
    },
    {
      "inputs": [
        {
          "internalType": "uint256",
          "name": "_id",
          "type": "uint256"
        },
        {
          "internalType": "string",
          "name": "_nif",
          "type": "string"
        },
        {
          "internalType": "string",
          "name": "_fullname",
          "type": "string"
        },
        {
          "internalType": "string",
          "name": "_patientAddress",
          "type": "string"
        },
        {
          "internalType": "uint256",
          "name": "_phone",
          "type": "uint256"
        },
        {
          "internalType": "string",
          "name": "_email",
          "type": "string"
        },
        {
          "internalType": "uint256",
          "name": "_age",
          "type": "uint256"
        },
        {
          "internalType": "string",
          "name": "_genre",
          "type": "string"
        },
        {
          "internalType": "string",
          "name": "_bloodGroup",
          "type": "string"
        },
        {
          "internalType": "string",
          "name": "_alergias",
          "type": "string"
        }
      ],
      "name": "updatePatient",
      "outputs": [],
      "stateMutability": "nonpayable",
      "type": "function"
    }
  ],
  "bytecode": "0x6080604052600080553480156200001557600080fd5b506200018b6040518060400160405280600981526020017f37373933393033304200000000000000000000000000000000000000000000008152506040518060400160405280600f81526020017f4a61766965722056696c6172696e6f00000000000000000000000000000000008152506040518060400160405280601a81526020017f506c7a612056697267656e206465206c6120416d617267757261000000000000815250632613b20b6040518060400160405280601081526020017f6a76696c6172696e6e6f4075732e65730000000000000000000000000000000081525060156040518060400160405280600181526020017f4d000000000000000000000000000000000000000000000000000000000000008152506040518060400160405280600281526020017f302b0000000000000000000000000000000000000000000000000000000000008152506040518060600160405280602681526020016200185a602691396200032260201b60201c565b6200031c6040518060400160405280600981526020017f37373933393033304100000000000000000000000000000000000000000000008152506040518060400160405280600b81526020017f4d616e75656c204c7569730000000000000000000000000000000000000000008152506040518060400160405280600d81526020017f43616c6c652054656a6172657300000000000000000000000000000000000000815250632613b20b6040518060400160405280601081526020017f6a76696c6172696e6e6f4075732e657300000000000000000000000000000000815250602b6040518060400160405280600181526020017f4d000000000000000000000000000000000000000000000000000000000000008152506040518060400160405280600281526020017f302b0000000000000000000000000000000000000000000000000000000000008152506040518060400160405280600a81526020017f4e6f2070726f63656465000000000000000000000000000000000000000000008152506200032260201b60201c565b620006af565b60405180610180016040528060005481526020018a81526020018981526020018881526020018781526020018681526020018581526020018481526020018381526020018281526020013373ffffffffffffffffffffffffffffffffffffffff168152602001428152506001600080548152602001908152602001600020600082015181600001556020820151816001019080519060200190620003c892919062000513565b506040820151816002019080519060200190620003e792919062000513565b5060608201518160030190805190602001906200040692919062000513565b506080820151816004015560a08201518160050190805190602001906200042f92919062000513565b5060c0820151816006015560e08201518160070190805190602001906200045892919062000513565b506101008201518160080190805190602001906200047892919062000513565b506101208201518160090190805190602001906200049892919062000513565b5061014082015181600a0160006101000a81548173ffffffffffffffffffffffffffffffffffffffff021916908373ffffffffffffffffffffffffffffffffffffffff16021790555061016082015181600b01559050506000808154809291906200050390620005fc565b9190505550505050505050505050565b828054620005219062000679565b90600052602060002090601f01602090048101928262000545576000855562000591565b82601f106200056057805160ff191683800117855562000591565b8280016001018555821562000591579182015b828111156200059057825182559160200191906001019062000573565b5b509050620005a09190620005a4565b5090565b5b80821115620005bf576000816000905550600101620005a5565b5090565b7f4e487b7100000000000000000000000000000000000000000000000000000000600052601160045260246000fd5b6000819050919050565b60006200060982620005f2565b91507fffffffffffffffffffffffffffffffffffffffffffffffffffffffffffffffff8214156200063f576200063e620005c3565b5b600182019050919050565b7f4e487b7100000000000000000000000000000000000000000000000000000000600052602260045260246000fd5b600060028204905060018216806200069257607f821691505b60208210811415620006a957620006a86200064a565b5b50919050565b61119b80620006bf6000396000f3fe608060405234801561001057600080fd5b50600436106100575760003560e01c80630ce8ef1b1461005c578063378945111461007857806367e574821461009457806393119a83146100b0578063e8e0b05c146100eb575b600080fd5b61007660048036038101906100719190610b50565b610109565b005b610092600480360381019061008d9190610cf3565b6101ee565b005b6100ae60048036038101906100a99190610e81565b6103cf565b005b6100ca60048036038101906100c59190610e81565b61049f565b6040516100e29c9b9a99989796959493929190610f86565b60405180910390f35b6100f36108d7565b6040516101009190611071565b60405180910390f35b6000600160008c81526020019081526020016000209050898160010190805190602001906101389291906108dd565b50888160020190805190602001906101519291906108dd565b508781600301908051906020019061016a9291906108dd565b508681600401819055508581600501908051906020019061018c9291906108dd565b50848160060181905550838160070190805190602001906101ae9291906108dd565b50828160080190805190602001906101c79291906108dd565b50818160090190805190602001906101e09291906108dd565b505050505050505050505050565b60405180610180016040528060005481526020018a81526020018981526020018881526020018781526020018681526020018581526020018481526020018381526020018281526020013373ffffffffffffffffffffffffffffffffffffffff1681526020014281525060016000805481526020019081526020016000206000820151816000015560208201518160010190805190602001906102929291906108dd565b5060408201518160020190805190602001906102af9291906108dd565b5060608201518160030190805190602001906102cc9291906108dd565b506080820151816004015560a08201518160050190805190602001906102f39291906108dd565b5060c0820151816006015560e082015181600701908051906020019061031a9291906108dd565b506101008201518160080190805190602001906103389291906108dd565b506101208201518160090190805190602001906103569291906108dd565b5061014082015181600a0160006101000a81548173ffffffffffffffffffffffffffffffffffffffff021916908373ffffffffffffffffffffffffffffffffffffffff16021790555061016082015181600b01559050506000808154809291906103bf906110bb565b9190505550505050505050505050565b600160008281526020019081526020016000206000808201600090556001820160006103fb9190610963565b60028201600061040b9190610963565b60038201600061041b9190610963565b60048201600090556005820160006104339190610963565b600682016000905560078201600061044b9190610963565b60088201600061045b9190610963565b60098201600061046b9190610963565b600a820160006101000a81549073ffffffffffffffffffffffffffffffffffffffff0219169055600b820160009055505050565b60016020528060005260406000206000915090508060000154908060010180546104c890611133565b80601f01602080910402602001604051908101604052809291908181526020018280546104f490611133565b80156105415780601f1061051657610100808354040283529160200191610541565b820191906000526020600020905b81548152906001019060200180831161052457829003601f168201915b50505050509080600201805461055690611133565b80601f016020809104026020016040519081016040528092919081815260200182805461058290611133565b80156105cf5780601f106105a4576101008083540402835291602001916105cf565b820191906000526020600020905b8154815290600101906020018083116105b257829003601f168201915b5050505050908060030180546105e490611133565b80601f016020809104026020016040519081016040528092919081815260200182805461061090611133565b801561065d5780601f106106325761010080835404028352916020019161065d565b820191906000526020600020905b81548152906001019060200180831161064057829003601f168201915b50505050509080600401549080600501805461067890611133565b80601f01602080910402602001604051908101604052809291908181526020018280546106a490611133565b80156106f15780601f106106c6576101008083540402835291602001916106f1565b820191906000526020600020905b8154815290600101906020018083116106d457829003601f168201915b50505050509080600601549080600701805461070c90611133565b80601f016020809104026020016040519081016040528092919081815260200182805461073890611133565b80156107855780601f1061075a57610100808354040283529160200191610785565b820191906000526020600020905b81548152906001019060200180831161076857829003601f168201915b50505050509080600801805461079a90611133565b80601f01602080910402602001604051908101604052809291908181526020018280546107c690611133565b80156108135780601f106107e857610100808354040283529160200191610813565b820191906000526020600020905b8154815290600101906020018083116107f657829003601f168201915b50505050509080600901805461082890611133565b80601f016020809104026020016040519081016040528092919081815260200182805461085490611133565b80156108a15780601f10610876576101008083540402835291602001916108a1565b820191906000526020600020905b81548152906001019060200180831161088457829003601f168201915b50505050509080600a0160009054906101000a900473ffffffffffffffffffffffffffffffffffffffff169080600b015490508c565b60005481565b8280546108e990611133565b90600052602060002090601f01602090048101928261090b5760008555610952565b82601f1061092457805160ff1916838001178555610952565b82800160010185558215610952579182015b82811115610951578251825591602001919060010190610936565b5b50905061095f91906109a3565b5090565b50805461096f90611133565b6000825580601f1061098157506109a0565b601f01602090049060005260206000209081019061099f91906109a3565b5b50565b5b808211156109bc5760008160009055506001016109a4565b5090565b6000604051905090565b600080fd5b600080fd5b6000819050919050565b6109e7816109d4565b81146109f257600080fd5b50565b600081359050610a04816109de565b92915050565b600080fd5b600080fd5b6000601f19601f8301169050919050565b7f4e487b7100000000000000000000000000000000000000000000000000000000600052604160045260246000fd5b610a5d82610a14565b810181811067ffffffffffffffff82111715610a7c57610a7b610a25565b5b80604052505050565b6000610a8f6109c0565b9050610a9b8282610a54565b919050565b600067ffffffffffffffff821115610abb57610aba610a25565b5b610ac482610a14565b9050602081019050919050565b82818337600083830152505050565b6000610af3610aee84610aa0565b610a85565b905082815260208101848484011115610b0f57610b0e610a0f565b5b610b1a848285610ad1565b509392505050565b600082601f830112610b3757610b36610a0a565b5b8135610b47848260208601610ae0565b91505092915050565b6000806000806000806000806000806101408b8d031215610b7457610b736109ca565b5b6000610b828d828e016109f5565b9a505060208b013567ffffffffffffffff811115610ba357610ba26109cf565b5b610baf8d828e01610b22565b99505060408b013567ffffffffffffffff811115610bd057610bcf6109cf565b5b610bdc8d828e01610b22565b98505060608b013567ffffffffffffffff811115610bfd57610bfc6109cf565b5b610c098d828e01610b22565b9750506080610c1a8d828e016109f5565b96505060a08b013567ffffffffffffffff811115610c3b57610c3a6109cf565b5b610c478d828e01610b22565b95505060c0610c588d828e016109f5565b94505060e08b013567ffffffffffffffff811115610c7957610c786109cf565b5b610c858d828e01610b22565b9350506101008b013567ffffffffffffffff811115610ca757610ca66109cf565b5b610cb38d828e01610b22565b9250506101208b013567ffffffffffffffff811115610cd557610cd46109cf565b5b610ce18d828e01610b22565b9150509295989b9194979a5092959850565b60008060008060008060008060006101208a8c031215610d1657610d156109ca565b5b60008a013567ffffffffffffffff811115610d3457610d336109cf565b5b610d408c828d01610b22565b99505060208a013567ffffffffffffffff811115610d6157610d606109cf565b5b610d6d8c828d01610b22565b98505060408a013567ffffffffffffffff811115610d8e57610d8d6109cf565b5b610d9a8c828d01610b22565b9750506060610dab8c828d016109f5565b96505060808a013567ffffffffffffffff811115610dcc57610dcb6109cf565b5b610dd88c828d01610b22565b95505060a0610de98c828d016109f5565b94505060c08a013567ffffffffffffffff811115610e0a57610e096109cf565b5b610e168c828d01610b22565b93505060e08a013567ffffffffffffffff811115610e3757610e366109cf565b5b610e438c828d01610b22565b9250506101008a013567ffffffffffffffff811115610e6557610e646109cf565b5b610e718c828d01610b22565b9150509295985092959850929598565b600060208284031215610e9757610e966109ca565b5b6000610ea5848285016109f5565b91505092915050565b610eb7816109d4565b82525050565b600081519050919050565b600082825260208201905092915050565b60005b83811015610ef7578082015181840152602081019050610edc565b83811115610f06576000848401525b50505050565b6000610f1782610ebd565b610f218185610ec8565b9350610f31818560208601610ed9565b610f3a81610a14565b840191505092915050565b600073ffffffffffffffffffffffffffffffffffffffff82169050919050565b6000610f7082610f45565b9050919050565b610f8081610f65565b82525050565b600061018082019050610f9c600083018f610eae565b8181036020830152610fae818e610f0c565b90508181036040830152610fc2818d610f0c565b90508181036060830152610fd6818c610f0c565b9050610fe5608083018b610eae565b81810360a0830152610ff7818a610f0c565b905061100660c0830189610eae565b81810360e08301526110188188610f0c565b905081810361010083015261102d8187610f0c565b90508181036101208301526110428186610f0c565b9050611052610140830185610f77565b611060610160830184610eae565b9d9c50505050505050505050505050565b60006020820190506110866000830184610eae565b92915050565b7f4e487b7100000000000000000000000000000000000000000000000000000000600052601160045260246000fd5b60006110c6826109d4565b91507fffffffffffffffffffffffffffffffffffffffffffffffffffffffffffffffff8214156110f9576110f861108c565b5b600182019050919050565b7f4e487b7100000000000000000000000000000000000000000000000000000000600052602260045260246000fd5b6000600282049050600182168061114b57607f821691505b6020821081141561115f5761115e611104565b5b5091905056fea2646970667358221220d5223fc56480aad30e6e6fde3bd4146f0fd910c71b8f2363d420fdf2439f64d964736f6c634300080b0033456c2070616369656e7465207469656e6520616c65726769612061206c6f7320616361726f73",
  "immutableReferences": {},
  "source": "// SPDX-License-Identifier: MIT\npragma solidity 0.8.11;\n\ncontract MedicalReport {\n\n    constructor () {\n        registerPatient(\"77939030B\", \"Javier Vilarino\", \"Plza Virgen de la Amargura\", 638824971, \"jvilarinno@us.es\",\n            21, \"M\", \"0+\", \"El paciente tiene alergia a los acaros\");\n        registerPatient(\"77939030A\", \"Manuel Luis\", \"Calle Tejares\", 638824971, \"jvilarinno@us.es\",\n            43, \"M\", \"0+\", \"No procede\");\n    }\n    \n    struct Patient {\n        uint id;\n        string nif;\n        string fullname;\n        string patientAddress;\n        uint phone;\n        string email;\n        uint age;\n        string genre;\n        string bloodGroup;\n        string alergias;\n        address registeredBy;\n        uint256 registeredAt;\n    }\n\n    uint public patientCounter = 0;\n\n    mapping(uint => Patient) public patients;\n\n    function registerPatient(\n        string memory _nif, \n        string memory _fullname,\n        string memory _patientAddress,\n        uint _phone,\n        string memory _email,\n        uint _age,\n        string memory _genre,\n        string memory _bloodGroup,\n        string memory _alergias) public {\n            patients[patientCounter] = Patient(\n                patientCounter,\n                _nif,\n                _fullname,\n                _patientAddress,\n                _phone,\n                _email,\n                _age,\n                _genre, \n                _bloodGroup,\n                _alergias,\n                msg.sender,\n                block.timestamp\n            );\n            patientCounter++;\n        }\n    \n    function deletePatient(uint _id) public {\n        delete patients[_id];\n    }\n\n    function updatePatient(\n        uint _id,\n        string memory _nif, \n        string memory _fullname,\n        string memory _patientAddress,\n        uint _phone,\n        string memory _email,\n        uint _age,\n        string memory _genre,\n        string memory _bloodGroup,\n        string memory _alergias) public {\n            Patient storage patient = patients[_id];\n            patient.nif = _nif;\n            patient.fullname = _fullname;\n            patient.patientAddress = _patientAddress;\n            patient.phone = _phone;\n            patient.email = _email;\n            patient.age = _age;\n            patient.genre = _genre;\n            patient.bloodGroup = _bloodGroup;\n            patient.alergias = _alergias;\n        }\n\n}",
  "sourcePath": "/Users/javitoox/Desktop/IS/AII/Trabajo/Visc-Labs/contracts/MedicalReport.sol",
  "compiler": {
    "name": "solc",
    "version": "0.8.11+commit.d7f03943.Emscripten.clang"
  },
  "schemaVersion": "3.4.7",
  "updatedAt": "2022-05-06T18:28:46.539Z",
  "networkType": "ethereum",
  "devdoc": {
    "kind": "dev",
    "methods": {},
    "version": 1
  },
  "userdoc": {
    "kind": "user",
    "methods": {},
    "version": 1
  }
}