{
  "contractName": "MedicalReport",
  "abi": [
    {
      "inputs": [],
      "stateMutability": "nonpayable",
      "type": "constructor"
    },
    {
      "inputs": [],
      "name": "patientCounter",
      "outputs": [
        {
          "internalType": "uint256",
          "name": "",
          "type": "uint256"
        }
      ],
      "stateMutability": "view",
      "type": "function",
      "constant": true
    },
    {
      "inputs": [
        {
          "internalType": "uint256",
          "name": "",
          "type": "uint256"
        }
      ],
      "name": "patients",
      "outputs": [
        {
          "internalType": "uint256",
          "name": "id",
          "type": "uint256"
        },
        {
          "internalType": "string",
          "name": "nif",
          "type": "string"
        },
        {
          "internalType": "string",
          "name": "fullname",
          "type": "string"
        },
        {
          "internalType": "string",
          "name": "patientAddress",
          "type": "string"
        },
        {
          "internalType": "uint256",
          "name": "phone",
          "type": "uint256"
        },
        {
          "internalType": "string",
          "name": "email",
          "type": "string"
        },
        {
          "internalType": "uint256",
          "name": "age",
          "type": "uint256"
        },
        {
          "internalType": "string",
          "name": "genre",
          "type": "string"
        },
        {
          "internalType": "string",
          "name": "bloodGroup",
          "type": "string"
        },
        {
          "internalType": "string",
          "name": "alergias",
          "type": "string"
        },
        {
          "internalType": "address",
          "name": "registeredBy",
          "type": "address"
        },
        {
          "internalType": "uint256",
          "name": "registeredAt",
          "type": "uint256"
        }
      ],
      "stateMutability": "view",
      "type": "function",
      "constant": true
    },
    {
      "inputs": [
        {
          "internalType": "string",
          "name": "_nif",
          "type": "string"
        },
        {
          "internalType": "string",
          "name": "_fullname",
          "type": "string"
        },
        {
          "internalType": "string",
          "name": "_patientAddress",
          "type": "string"
        },
        {
          "internalType": "uint256",
          "name": "_phone",
          "type": "uint256"
        },
        {
          "internalType": "string",
          "name": "_email",
          "type": "string"
        },
        {
          "internalType": "uint256",
          "name": "_age",
          "type": "uint256"
        },
        {
          "internalType": "string",
          "name": "_genre",
          "type": "string"
        },
        {
          "internalType": "string",
          "name": "_bloodGroup",
          "type": "string"
        },
        {
          "internalType": "string",
          "name": "_alergias",
          "type": "string"
        }
      ],
      "name": "registerPatient",
      "outputs": [],
      "stateMutability": "nonpayable",
      "type": "function"
    }
  ],
  "bytecode": "0x6080604052600080553480156200001557600080fd5b506200018b6040518060400160405280600981526020017f37373933393033304200000000000000000000000000000000000000000000008152506040518060400160405280600f81526020017f4a61766965722056696c6172696e6f00000000000000000000000000000000008152506040518060400160405280601a81526020017f506c7a612056697267656e206465206c6120416d617267757261000000000000815250632613b20b6040518060400160405280601081526020017f6a76696c6172696e6e6f4075732e65730000000000000000000000000000000081525060156040518060400160405280600181526020017f4d000000000000000000000000000000000000000000000000000000000000008152506040518060400160405280600281526020017f302b000000000000000000000000000000000000000000000000000000000000815250604051806060016040528060268152602001620012e3602691396200019160201b60201c565b6200051e565b60405180610180016040528060005481526020018a81526020018981526020018881526020018781526020018681526020018581526020018481526020018381526020018281526020013373ffffffffffffffffffffffffffffffffffffffff1681526020014281525060016000805481526020019081526020016000206000820151816000015560208201518160010190805190602001906200023792919062000382565b5060408201518160020190805190602001906200025692919062000382565b5060608201518160030190805190602001906200027592919062000382565b506080820151816004015560a08201518160050190805190602001906200029e92919062000382565b5060c0820151816006015560e0820151816007019080519060200190620002c792919062000382565b50610100820151816008019080519060200190620002e792919062000382565b506101208201518160090190805190602001906200030792919062000382565b5061014082015181600a0160006101000a81548173ffffffffffffffffffffffffffffffffffffffff021916908373ffffffffffffffffffffffffffffffffffffffff16021790555061016082015181600b015590505060008081548092919062000372906200046b565b9190505550505050505050505050565b8280546200039090620004e8565b90600052602060002090601f016020900481019282620003b4576000855562000400565b82601f10620003cf57805160ff191683800117855562000400565b8280016001018555821562000400579182015b82811115620003ff578251825591602001919060010190620003e2565b5b5090506200040f919062000413565b5090565b5b808211156200042e57600081600090555060010162000414565b5090565b7f4e487b7100000000000000000000000000000000000000000000000000000000600052601160045260246000fd5b6000819050919050565b6000620004788262000461565b91507fffffffffffffffffffffffffffffffffffffffffffffffffffffffffffffffff821415620004ae57620004ad62000432565b5b600182019050919050565b7f4e487b7100000000000000000000000000000000000000000000000000000000600052602260045260246000fd5b600060028204905060018216806200050157607f821691505b60208210811415620005185762000517620004b9565b5b50919050565b610db5806200052e6000396000f3fe608060405234801561001057600080fd5b50600436106100415760003560e01c8063378945111461004657806393119a8314610062578063e8e0b05c1461009d575b600080fd5b610060600480360381019061005b919061090d565b6100bb565b005b61007c60048036038101906100779190610a9b565b61029c565b6040516100949c9b9a99989796959493929190610ba0565b60405180910390f35b6100a56106d4565b6040516100b29190610c8b565b60405180910390f35b60405180610180016040528060005481526020018a81526020018981526020018881526020018781526020018681526020018581526020018481526020018381526020018281526020013373ffffffffffffffffffffffffffffffffffffffff16815260200142815250600160008054815260200190815260200160002060008201518160000155602082015181600101908051906020019061015f9291906106da565b50604082015181600201908051906020019061017c9291906106da565b5060608201518160030190805190602001906101999291906106da565b506080820151816004015560a08201518160050190805190602001906101c09291906106da565b5060c0820151816006015560e08201518160070190805190602001906101e79291906106da565b506101008201518160080190805190602001906102059291906106da565b506101208201518160090190805190602001906102239291906106da565b5061014082015181600a0160006101000a81548173ffffffffffffffffffffffffffffffffffffffff021916908373ffffffffffffffffffffffffffffffffffffffff16021790555061016082015181600b015590505060008081548092919061028c90610cd5565b9190505550505050505050505050565b60016020528060005260406000206000915090508060000154908060010180546102c590610d4d565b80601f01602080910402602001604051908101604052809291908181526020018280546102f190610d4d565b801561033e5780601f106103135761010080835404028352916020019161033e565b820191906000526020600020905b81548152906001019060200180831161032157829003601f168201915b50505050509080600201805461035390610d4d565b80601f016020809104026020016040519081016040528092919081815260200182805461037f90610d4d565b80156103cc5780601f106103a1576101008083540402835291602001916103cc565b820191906000526020600020905b8154815290600101906020018083116103af57829003601f168201915b5050505050908060030180546103e190610d4d565b80601f016020809104026020016040519081016040528092919081815260200182805461040d90610d4d565b801561045a5780601f1061042f5761010080835404028352916020019161045a565b820191906000526020600020905b81548152906001019060200180831161043d57829003601f168201915b50505050509080600401549080600501805461047590610d4d565b80601f01602080910402602001604051908101604052809291908181526020018280546104a190610d4d565b80156104ee5780601f106104c3576101008083540402835291602001916104ee565b820191906000526020600020905b8154815290600101906020018083116104d157829003601f168201915b50505050509080600601549080600701805461050990610d4d565b80601f016020809104026020016040519081016040528092919081815260200182805461053590610d4d565b80156105825780601f1061055757610100808354040283529160200191610582565b820191906000526020600020905b81548152906001019060200180831161056557829003601f168201915b50505050509080600801805461059790610d4d565b80601f01602080910402602001604051908101604052809291908181526020018280546105c390610d4d565b80156106105780601f106105e557610100808354040283529160200191610610565b820191906000526020600020905b8154815290600101906020018083116105f357829003601f168201915b50505050509080600901805461062590610d4d565b80601f016020809104026020016040519081016040528092919081815260200182805461065190610d4d565b801561069e5780601f106106735761010080835404028352916020019161069e565b820191906000526020600020905b81548152906001019060200180831161068157829003601f168201915b50505050509080600a0160009054906101000a900473ffffffffffffffffffffffffffffffffffffffff169080600b015490508c565b60005481565b8280546106e690610d4d565b90600052602060002090601f016020900481019282610708576000855561074f565b82601f1061072157805160ff191683800117855561074f565b8280016001018555821561074f579182015b8281111561074e578251825591602001919060010190610733565b5b50905061075c9190610760565b5090565b5b80821115610779576000816000905550600101610761565b5090565b6000604051905090565b600080fd5b600080fd5b600080fd5b600080fd5b6000601f19601f8301169050919050565b7f4e487b7100000000000000000000000000000000000000000000000000000000600052604160045260246000fd5b6107e48261079b565b810181811067ffffffffffffffff82111715610803576108026107ac565b5b80604052505050565b600061081661077d565b905061082282826107db565b919050565b600067ffffffffffffffff821115610842576108416107ac565b5b61084b8261079b565b9050602081019050919050565b82818337600083830152505050565b600061087a61087584610827565b61080c565b90508281526020810184848401111561089657610895610796565b5b6108a1848285610858565b509392505050565b600082601f8301126108be576108bd610791565b5b81356108ce848260208601610867565b91505092915050565b6000819050919050565b6108ea816108d7565b81146108f557600080fd5b50565b600081359050610907816108e1565b92915050565b60008060008060008060008060006101208a8c0312156109305761092f610787565b5b60008a013567ffffffffffffffff81111561094e5761094d61078c565b5b61095a8c828d016108a9565b99505060208a013567ffffffffffffffff81111561097b5761097a61078c565b5b6109878c828d016108a9565b98505060408a013567ffffffffffffffff8111156109a8576109a761078c565b5b6109b48c828d016108a9565b97505060606109c58c828d016108f8565b96505060808a013567ffffffffffffffff8111156109e6576109e561078c565b5b6109f28c828d016108a9565b95505060a0610a038c828d016108f8565b94505060c08a013567ffffffffffffffff811115610a2457610a2361078c565b5b610a308c828d016108a9565b93505060e08a013567ffffffffffffffff811115610a5157610a5061078c565b5b610a5d8c828d016108a9565b9250506101008a013567ffffffffffffffff811115610a7f57610a7e61078c565b5b610a8b8c828d016108a9565b9150509295985092959850929598565b600060208284031215610ab157610ab0610787565b5b6000610abf848285016108f8565b91505092915050565b610ad1816108d7565b82525050565b600081519050919050565b600082825260208201905092915050565b60005b83811015610b11578082015181840152602081019050610af6565b83811115610b20576000848401525b50505050565b6000610b3182610ad7565b610b3b8185610ae2565b9350610b4b818560208601610af3565b610b548161079b565b840191505092915050565b600073ffffffffffffffffffffffffffffffffffffffff82169050919050565b6000610b8a82610b5f565b9050919050565b610b9a81610b7f565b82525050565b600061018082019050610bb6600083018f610ac8565b8181036020830152610bc8818e610b26565b90508181036040830152610bdc818d610b26565b90508181036060830152610bf0818c610b26565b9050610bff608083018b610ac8565b81810360a0830152610c11818a610b26565b9050610c2060c0830189610ac8565b81810360e0830152610c328188610b26565b9050818103610100830152610c478187610b26565b9050818103610120830152610c5c8186610b26565b9050610c6c610140830185610b91565b610c7a610160830184610ac8565b9d9c50505050505050505050505050565b6000602082019050610ca06000830184610ac8565b92915050565b7f4e487b7100000000000000000000000000000000000000000000000000000000600052601160045260246000fd5b6000610ce0826108d7565b91507fffffffffffffffffffffffffffffffffffffffffffffffffffffffffffffffff821415610d1357610d12610ca6565b5b600182019050919050565b7f4e487b7100000000000000000000000000000000000000000000000000000000600052602260045260246000fd5b60006002820490506001821680610d6557607f821691505b60208210811415610d7957610d78610d1e565b5b5091905056fea2646970667358221220497b25ea116141c8ff50a421c81e5e02c8c559bb7a511b50113ab8d308b9c3d064736f6c634300080b0033456c2070616369656e7465207469656e6520616c65726769612061206c6f7320616361726f73",
  "immutableReferences": {},
  "source": "// SPDX-License-Identifier: MIT\npragma solidity 0.8.11;\n\ncontract MedicalReport {\n\n    constructor () {\n        registerPatient(\"77939030B\", \"Javier Vilarino\", \"Plza Virgen de la Amargura\", 638824971, \"jvilarinno@us.es\",\n            21, \"M\", \"0+\", \"El paciente tiene alergia a los acaros\");\n    }\n    \n    struct Patient {\n        uint id;\n        string nif;\n        string fullname;\n        string patientAddress;\n        uint phone;\n        string email;\n        uint age;\n        string genre;\n        string bloodGroup;\n        string alergias;\n        address registeredBy;\n        uint256 registeredAt;\n    }\n\n    uint public patientCounter = 0;\n\n    mapping(uint => Patient) public patients;\n\n    function registerPatient(\n        string memory _nif, \n        string memory _fullname,\n        string memory _patientAddress,\n        uint _phone,\n        string memory _email,\n        uint _age,\n        string memory _genre,\n        string memory _bloodGroup,\n        string memory _alergias) public {\n            patients[patientCounter] = Patient(\n                patientCounter,\n                _nif,\n                _fullname,\n                _patientAddress,\n                _phone,\n                _email,\n                _age,\n                _genre, \n                _bloodGroup,\n                _alergias,\n                msg.sender,\n                block.timestamp\n            );\n            patientCounter++;\n        }\n\n}",
  "sourcePath": "/Volumes/ext/Visc-Labs/contracts/MedicalReport.sol",
  "compiler": {
    "name": "solc",
    "version": "0.8.11+commit.d7f03943.Emscripten.clang"
  },
  "schemaVersion": "3.4.4",
  "updatedAt": "2022-05-02T11:08:43.916Z",
  "networkType": "ethereum",
  "devdoc": {
    "kind": "dev",
    "methods": {},
    "version": 1
  },
  "userdoc": {
    "kind": "user",
    "methods": {},
    "version": 1
  }
}