{
  "contractName": "MedicalReport",
  "abi": [
    {
      "inputs": [],
      "stateMutability": "nonpayable",
      "type": "constructor"
    },
    {
      "inputs": [],
      "name": "patientCounter",
      "outputs": [
        {
          "internalType": "uint256",
          "name": "",
          "type": "uint256"
        }
      ],
      "stateMutability": "view",
      "type": "function",
      "constant": true
    },
    {
      "inputs": [
        {
          "internalType": "uint256",
          "name": "",
          "type": "uint256"
        }
      ],
      "name": "patients",
      "outputs": [
        {
          "internalType": "uint256",
          "name": "id",
          "type": "uint256"
        },
        {
          "internalType": "string",
          "name": "nif",
          "type": "string"
        },
        {
          "internalType": "string",
          "name": "fullname",
          "type": "string"
        },
        {
          "internalType": "string",
          "name": "patientAddress",
          "type": "string"
        },
        {
          "internalType": "uint256",
          "name": "phone",
          "type": "uint256"
        },
        {
          "internalType": "string",
          "name": "email",
          "type": "string"
        },
        {
          "internalType": "uint256",
          "name": "age",
          "type": "uint256"
        },
        {
          "internalType": "string",
          "name": "genre",
          "type": "string"
        },
        {
          "internalType": "string",
          "name": "bloodGroup",
          "type": "string"
        },
        {
          "internalType": "string",
          "name": "alergias",
          "type": "string"
        },
        {
          "internalType": "address",
          "name": "registeredBy",
          "type": "address"
        },
        {
          "internalType": "uint256",
          "name": "registeredAt",
          "type": "uint256"
        }
      ],
      "stateMutability": "view",
      "type": "function",
      "constant": true
    },
    {
      "inputs": [
        {
          "internalType": "string",
          "name": "_nif",
          "type": "string"
        },
        {
          "internalType": "string",
          "name": "_fullname",
          "type": "string"
        },
        {
          "internalType": "string",
          "name": "_patientAddress",
          "type": "string"
        },
        {
          "internalType": "uint256",
          "name": "_phone",
          "type": "uint256"
        },
        {
          "internalType": "string",
          "name": "_email",
          "type": "string"
        },
        {
          "internalType": "uint256",
          "name": "_age",
          "type": "uint256"
        },
        {
          "internalType": "string",
          "name": "_genre",
          "type": "string"
        },
        {
          "internalType": "string",
          "name": "_bloodGroup",
          "type": "string"
        },
        {
          "internalType": "string",
          "name": "_alergias",
          "type": "string"
        }
      ],
      "name": "registerPatient",
      "outputs": [],
      "stateMutability": "nonpayable",
      "type": "function"
    },
    {
      "inputs": [
        {
          "internalType": "uint256",
          "name": "_id",
          "type": "uint256"
        }
      ],
      "name": "deletePatient",
      "outputs": [],
      "stateMutability": "nonpayable",
      "type": "function"
    }
  ],
  "bytecode": "0x6080604052600080553480156200001557600080fd5b506200018b6040518060400160405280600981526020017f37373933393033304200000000000000000000000000000000000000000000008152506040518060400160405280600f81526020017f4a61766965722056696c6172696e6f00000000000000000000000000000000008152506040518060400160405280601a81526020017f506c7a612056697267656e206465206c6120416d617267757261000000000000815250632613b20b6040518060400160405280601081526020017f6a76696c6172696e6e6f4075732e65730000000000000000000000000000000081525060156040518060400160405280600181526020017f4d000000000000000000000000000000000000000000000000000000000000008152506040518060400160405280600281526020017f302b000000000000000000000000000000000000000000000000000000000000815250604051806060016040528060268152602001620015ab602691396200032260201b60201c565b6200031c6040518060400160405280600981526020017f37373933393033304100000000000000000000000000000000000000000000008152506040518060400160405280600b81526020017f4d616e75656c204c7569730000000000000000000000000000000000000000008152506040518060400160405280600d81526020017f43616c6c652054656a6172657300000000000000000000000000000000000000815250632613b20b6040518060400160405280601081526020017f6a76696c6172696e6e6f4075732e657300000000000000000000000000000000815250602b6040518060400160405280600181526020017f4d000000000000000000000000000000000000000000000000000000000000008152506040518060400160405280600281526020017f302b0000000000000000000000000000000000000000000000000000000000008152506040518060400160405280600a81526020017f4e6f2070726f63656465000000000000000000000000000000000000000000008152506200032260201b60201c565b620006af565b60405180610180016040528060005481526020018a81526020018981526020018881526020018781526020018681526020018581526020018481526020018381526020018281526020013373ffffffffffffffffffffffffffffffffffffffff168152602001428152506001600080548152602001908152602001600020600082015181600001556020820151816001019080519060200190620003c892919062000513565b506040820151816002019080519060200190620003e792919062000513565b5060608201518160030190805190602001906200040692919062000513565b506080820151816004015560a08201518160050190805190602001906200042f92919062000513565b5060c0820151816006015560e08201518160070190805190602001906200045892919062000513565b506101008201518160080190805190602001906200047892919062000513565b506101208201518160090190805190602001906200049892919062000513565b5061014082015181600a0160006101000a81548173ffffffffffffffffffffffffffffffffffffffff021916908373ffffffffffffffffffffffffffffffffffffffff16021790555061016082015181600b01559050506000808154809291906200050390620005fc565b9190505550505050505050505050565b828054620005219062000679565b90600052602060002090601f01602090048101928262000545576000855562000591565b82601f106200056057805160ff191683800117855562000591565b8280016001018555821562000591579182015b828111156200059057825182559160200191906001019062000573565b5b509050620005a09190620005a4565b5090565b5b80821115620005bf576000816000905550600101620005a5565b5090565b7f4e487b7100000000000000000000000000000000000000000000000000000000600052601160045260246000fd5b6000819050919050565b60006200060982620005f2565b91507fffffffffffffffffffffffffffffffffffffffffffffffffffffffffffffffff8214156200063f576200063e620005c3565b5b600182019050919050565b7f4e487b7100000000000000000000000000000000000000000000000000000000600052602260045260246000fd5b600060028204905060018216806200069257607f821691505b60208210811415620006a957620006a86200064a565b5b50919050565b610eec80620006bf6000396000f3fe608060405234801561001057600080fd5b506004361061004c5760003560e01c8063378945111461005157806367e574821461006d57806393119a8314610089578063e8e0b05c146100c4575b600080fd5b61006b60048036038101906100669190610a44565b6100e2565b005b61008760048036038101906100829190610bd2565b6102c3565b005b6100a3600480360381019061009e9190610bd2565b610393565b6040516100bb9c9b9a99989796959493929190610cd7565b60405180910390f35b6100cc6107cb565b6040516100d99190610dc2565b60405180910390f35b60405180610180016040528060005481526020018a81526020018981526020018881526020018781526020018681526020018581526020018481526020018381526020018281526020013373ffffffffffffffffffffffffffffffffffffffff1681526020014281525060016000805481526020019081526020016000206000820151816000015560208201518160010190805190602001906101869291906107d1565b5060408201518160020190805190602001906101a39291906107d1565b5060608201518160030190805190602001906101c09291906107d1565b506080820151816004015560a08201518160050190805190602001906101e79291906107d1565b5060c0820151816006015560e082015181600701908051906020019061020e9291906107d1565b5061010082015181600801908051906020019061022c9291906107d1565b5061012082015181600901908051906020019061024a9291906107d1565b5061014082015181600a0160006101000a81548173ffffffffffffffffffffffffffffffffffffffff021916908373ffffffffffffffffffffffffffffffffffffffff16021790555061016082015181600b01559050506000808154809291906102b390610e0c565b9190505550505050505050505050565b600160008281526020019081526020016000206000808201600090556001820160006102ef9190610857565b6002820160006102ff9190610857565b60038201600061030f9190610857565b60048201600090556005820160006103279190610857565b600682016000905560078201600061033f9190610857565b60088201600061034f9190610857565b60098201600061035f9190610857565b600a820160006101000a81549073ffffffffffffffffffffffffffffffffffffffff0219169055600b820160009055505050565b60016020528060005260406000206000915090508060000154908060010180546103bc90610e84565b80601f01602080910402602001604051908101604052809291908181526020018280546103e890610e84565b80156104355780601f1061040a57610100808354040283529160200191610435565b820191906000526020600020905b81548152906001019060200180831161041857829003601f168201915b50505050509080600201805461044a90610e84565b80601f016020809104026020016040519081016040528092919081815260200182805461047690610e84565b80156104c35780601f10610498576101008083540402835291602001916104c3565b820191906000526020600020905b8154815290600101906020018083116104a657829003601f168201915b5050505050908060030180546104d890610e84565b80601f016020809104026020016040519081016040528092919081815260200182805461050490610e84565b80156105515780601f1061052657610100808354040283529160200191610551565b820191906000526020600020905b81548152906001019060200180831161053457829003601f168201915b50505050509080600401549080600501805461056c90610e84565b80601f016020809104026020016040519081016040528092919081815260200182805461059890610e84565b80156105e55780601f106105ba576101008083540402835291602001916105e5565b820191906000526020600020905b8154815290600101906020018083116105c857829003601f168201915b50505050509080600601549080600701805461060090610e84565b80601f016020809104026020016040519081016040528092919081815260200182805461062c90610e84565b80156106795780601f1061064e57610100808354040283529160200191610679565b820191906000526020600020905b81548152906001019060200180831161065c57829003601f168201915b50505050509080600801805461068e90610e84565b80601f01602080910402602001604051908101604052809291908181526020018280546106ba90610e84565b80156107075780601f106106dc57610100808354040283529160200191610707565b820191906000526020600020905b8154815290600101906020018083116106ea57829003601f168201915b50505050509080600901805461071c90610e84565b80601f016020809104026020016040519081016040528092919081815260200182805461074890610e84565b80156107955780601f1061076a57610100808354040283529160200191610795565b820191906000526020600020905b81548152906001019060200180831161077857829003601f168201915b50505050509080600a0160009054906101000a900473ffffffffffffffffffffffffffffffffffffffff169080600b015490508c565b60005481565b8280546107dd90610e84565b90600052602060002090601f0160209004810192826107ff5760008555610846565b82601f1061081857805160ff1916838001178555610846565b82800160010185558215610846579182015b8281111561084557825182559160200191906001019061082a565b5b5090506108539190610897565b5090565b50805461086390610e84565b6000825580601f106108755750610894565b601f0160209004906000526020600020908101906108939190610897565b5b50565b5b808211156108b0576000816000905550600101610898565b5090565b6000604051905090565b600080fd5b600080fd5b600080fd5b600080fd5b6000601f19601f8301169050919050565b7f4e487b7100000000000000000000000000000000000000000000000000000000600052604160045260246000fd5b61091b826108d2565b810181811067ffffffffffffffff8211171561093a576109396108e3565b5b80604052505050565b600061094d6108b4565b90506109598282610912565b919050565b600067ffffffffffffffff821115610979576109786108e3565b5b610982826108d2565b9050602081019050919050565b82818337600083830152505050565b60006109b16109ac8461095e565b610943565b9050828152602081018484840111156109cd576109cc6108cd565b5b6109d884828561098f565b509392505050565b600082601f8301126109f5576109f46108c8565b5b8135610a0584826020860161099e565b91505092915050565b6000819050919050565b610a2181610a0e565b8114610a2c57600080fd5b50565b600081359050610a3e81610a18565b92915050565b60008060008060008060008060006101208a8c031215610a6757610a666108be565b5b60008a013567ffffffffffffffff811115610a8557610a846108c3565b5b610a918c828d016109e0565b99505060208a013567ffffffffffffffff811115610ab257610ab16108c3565b5b610abe8c828d016109e0565b98505060408a013567ffffffffffffffff811115610adf57610ade6108c3565b5b610aeb8c828d016109e0565b9750506060610afc8c828d01610a2f565b96505060808a013567ffffffffffffffff811115610b1d57610b1c6108c3565b5b610b298c828d016109e0565b95505060a0610b3a8c828d01610a2f565b94505060c08a013567ffffffffffffffff811115610b5b57610b5a6108c3565b5b610b678c828d016109e0565b93505060e08a013567ffffffffffffffff811115610b8857610b876108c3565b5b610b948c828d016109e0565b9250506101008a013567ffffffffffffffff811115610bb657610bb56108c3565b5b610bc28c828d016109e0565b9150509295985092959850929598565b600060208284031215610be857610be76108be565b5b6000610bf684828501610a2f565b91505092915050565b610c0881610a0e565b82525050565b600081519050919050565b600082825260208201905092915050565b60005b83811015610c48578082015181840152602081019050610c2d565b83811115610c57576000848401525b50505050565b6000610c6882610c0e565b610c728185610c19565b9350610c82818560208601610c2a565b610c8b816108d2565b840191505092915050565b600073ffffffffffffffffffffffffffffffffffffffff82169050919050565b6000610cc182610c96565b9050919050565b610cd181610cb6565b82525050565b600061018082019050610ced600083018f610bff565b8181036020830152610cff818e610c5d565b90508181036040830152610d13818d610c5d565b90508181036060830152610d27818c610c5d565b9050610d36608083018b610bff565b81810360a0830152610d48818a610c5d565b9050610d5760c0830189610bff565b81810360e0830152610d698188610c5d565b9050818103610100830152610d7e8187610c5d565b9050818103610120830152610d938186610c5d565b9050610da3610140830185610cc8565b610db1610160830184610bff565b9d9c50505050505050505050505050565b6000602082019050610dd76000830184610bff565b92915050565b7f4e487b7100000000000000000000000000000000000000000000000000000000600052601160045260246000fd5b6000610e1782610a0e565b91507fffffffffffffffffffffffffffffffffffffffffffffffffffffffffffffffff821415610e4a57610e49610ddd565b5b600182019050919050565b7f4e487b7100000000000000000000000000000000000000000000000000000000600052602260045260246000fd5b60006002820490506001821680610e9c57607f821691505b60208210811415610eb057610eaf610e55565b5b5091905056fea26469706673582212200308d71cf76d2e6d3bd85d6c2e1d8540ea0352293629b8fde742eb3225b7a41264736f6c634300080b0033456c2070616369656e7465207469656e6520616c65726769612061206c6f7320616361726f73",
  "immutableReferences": {},
  "source": "// SPDX-License-Identifier: MIT\npragma solidity 0.8.11;\n\ncontract MedicalReport {\n\n    constructor () {\n        registerPatient(\"77939030B\", \"Javier Vilarino\", \"Plza Virgen de la Amargura\", 638824971, \"jvilarinno@us.es\",\n            21, \"M\", \"0+\", \"El paciente tiene alergia a los acaros\");\n        registerPatient(\"77939030A\", \"Manuel Luis\", \"Calle Tejares\", 638824971, \"jvilarinno@us.es\",\n            43, \"M\", \"0+\", \"No procede\");\n    }\n    \n    struct Patient {\n        uint id;\n        string nif;\n        string fullname;\n        string patientAddress;\n        uint phone;\n        string email;\n        uint age;\n        string genre;\n        string bloodGroup;\n        string alergias;\n        address registeredBy;\n        uint256 registeredAt;\n    }\n\n    uint public patientCounter = 0;\n\n    mapping(uint => Patient) public patients;\n\n    function registerPatient(\n        string memory _nif, \n        string memory _fullname,\n        string memory _patientAddress,\n        uint _phone,\n        string memory _email,\n        uint _age,\n        string memory _genre,\n        string memory _bloodGroup,\n        string memory _alergias) public {\n            patients[patientCounter] = Patient(\n                patientCounter,\n                _nif,\n                _fullname,\n                _patientAddress,\n                _phone,\n                _email,\n                _age,\n                _genre, \n                _bloodGroup,\n                _alergias,\n                msg.sender,\n                block.timestamp\n            );\n            patientCounter++;\n        }\n    \n    function deletePatient(uint _id) public {\n        delete patients[_id];\n    }\n}",
  "sourcePath": "/Volumes/ext/Visc-Labs/contracts/MedicalReport.sol",
  "compiler": {
    "name": "solc",
    "version": "0.8.11+commit.d7f03943.Emscripten.clang"
  },
  "schemaVersion": "3.4.4",
  "updatedAt": "2022-05-05T09:45:37.854Z",
  "networkType": "ethereum",
  "devdoc": {
    "kind": "dev",
    "methods": {},
    "version": 1
  },
  "userdoc": {
    "kind": "user",
    "methods": {},
    "version": 1
  }
}